:2000000021C03AC039C038C037C0D6C735C034C033C032C01BC830C02FC02EC02DC0000015
:200020000000370000000000380000000000360002020202020201020408102001020000CD
:2000400004004E0A11241FBECFE5D2E0DEBFCDBF21E0A0E6B0E001C01D92A435B207E1F7B2
:2000600010E0C2E2D0E003C02197FE01A2DCC132D107D1F76CD9A3CCC3CF2F923F924F92F8
:200080005F926F927F928F929F92AF92BF92CF92DF92EF92FF920F931F93CF93DF9300D09D
:2000A00000D000D0CDB7DEB787E690E090934A01809349018091640090E090934C01809377
:2000C0004B018091310190E090934E0180934D0180916000853009F05FC68091690090916F
:2000E0006A00885891098D35910588F480916400843041F480916B0090916C0080974797EC
:2001000008F483C080916400843408F065C0809164008A3108F4CEC080916700909168009B
:20012000843F914080F410924801109247018FEF9FEFDC018093430190934401A0934501C1
:20014000B093460146C08091690090916A0085974B9708F0AFC082E090E040E050E0BA01C8
:20016000DC0111962091640030E0A217B30784F48C01000F111F980129593F4FF9012081DB
:200180003181275031092730310508F476C0CD0101979595879590934801809347010C9727
:2001A0002CF4109248011092470184C04093430150934401609345017093460184E090E070
:2001C000E1C4409343015093440160934501709346018BE090E0D6C480916B0090916C003A
:2001E000825491098E9708F092CF20E030E080E090E0DC01F901E359FF4F408151814950A4
:2002000051094930510588F082CF80916D0090916E000997099708F075CF109248011092D6
:2002200047018FEF9FEFDC01BAC5F901E159FF4F40815181475151094231510588F4880F2B
:20024000991FAA1FBB1F81602C5F3F4F2038310589F620E230E030934801209347019FC5BF
:2002600040815181465051094730510508F04FCF880F991FAA1FBB1FE7CFF801E759FF4FE9
:2002800020813181235131092F30310538F4440F551F661F771F4160029662CF20813181FD
:2002A0002A5031092930310528F4440F551F661F771FF2CF809164008A3108F460C08091DF
:2002C0006700909168008032934008F42CCF8091690090916A00C697869708F050C080911A
:2002E0006B0090916C00C697869708F048C083E090E040E050E0BA01DC0111962091640015
:2003000030E0A217B3077CF48C01000F111F980129593F4FF901208131812C5031092B3017
:20032000310580F0CD0101979595879590934801809347010C970CF044CF10924801109265
:2003400047011DC0F801E759FF4F20813181255231092B31310538F4440F551F661F771F4D
:2003600041600296C9CF208131812C5031092A30310528F4440F551F661F771FF2CF809143
:200380006400823208F459C08091690090916A000697079708F051C082E090E040E050E0C5
:2003A000BA01DC0111962091640030E0A217B307ECF49C01220F331F890109591F4FF80113
:2003C000E080F180F7017E97779748F5440F551F661F771F4160F901E759FF4F2081318196
:2003E000235031092530310530F1CD01019795958795909348018093470140972CF4109298
:2004000048011092470119C0409343015093440160934501709346018CE090E0B3C3F801C3
:2004200000811181F8013C973B9738F4440F551F661F771FD0CF0296B4CF1C821B8281E0A7
:2004400090E09A838983809164008D3078F41C821B8281E090E09A83898380914B019091B2
:200460004C01181619060CF467C0B9C049E753E0BE016D5F7F4FCE010196F4D6892B39F772
:2004800049E753E0BE016D5F7F4FCE010196EAD60197E9F649E753E0BE016D5F7F4FCE0178
:2004A0000196E0D6892B99F6C12CD12C760100E010E08091640090E029813A8128173907B2
:2004C00064F549E753E0BE016D5F7F4FCE010196C9D65C0149E753E0BE016D5F7F4FCE011A
:2004E0000196C0D6F1E0AF16B10451F4892B09F0AECFCC0CDD1CEE1CFF1C6894C0F80AC0A1
:20050000AB2809F0A4CF019709F0A1CFCC0CDD1CEE1CFF1C0F5F1F4FCCCF109348010093AF
:200520004701C0924301D0924401E0924501F092460181E090E026C3E0914901F0914A0174
:2005400082E090E09A8389838281938189974E9708F045C083E090E09A8389838481958170
:200560000B970A97E0F54CEB51E0BE016D5F7F4FCE01019677D6892B91F54CEB51E0BE018E
:200580006D5F7F4FCE0101966DD6019741F5C12CD12C760100E010E020914B0130914C010E
:2005A00089819A81821793070CF022C14CEB51E0BE016D5F7F4FCE01019654D65C01033023
:2005C000110509F0E1C04CEB51E0BE016D5F7F4FCE01019647D6A816B90609F4D5C0E091A7
:2005E0004901F0914A0182819381C6978697E0F4848195814B974597B8F4DF0116967F01EF
:2006000026ECE20EF11C20E030E040E050E060E070E080E090E00D911C91119709501109A5
:200620000830110508F4F3C080916400893370F182819381895791098335910508F420C16F
:2006400025C0D90112966D917C911397665171096131710508F040C1D701C601880F991F5E
:20066000AA1FBB1F6C017D016894C0F84E5F5F4F2C5F3F4F4B33510509F411C1D9016D9149
:200680007C916A50710969307105D8F280916400823231F4828193810A97099708F42CC1B1
:2006A000828193818957910983359105D0F4809164008132B0F084819581CA97899788F4B7
:2006C0009F012A5F3F4FC12CD12C760143E050E0D9016D917C916A5071096930710508F48B
:2006E0002AC1828193818C549109C59778F480916400843031F4848195818097479708F45C
:200700007DC180916400843408F05FC180916400863460F1828193810C970B9708F4BCC101
:2007200025C0D90112966D917C9113976E5171096731710508F0E8C1D701C601880F991FC7
:20074000AA1FBB1F6C017D016894C0F84E5F5F4F2C5F3F4F4534510509F4B9C1D9016D91C5
:200760007C916C5071096B307105D8F280916400883508F438C282819381855891098B35E5
:20078000910508F4D1C12FC24CEB51E0BE016D5F7F4FCE01019666D54C010330110561F4F7
:2007A0004CEB51E0BE016D5F7F4FCE0101965AD58816990609F013CFA114B10459F48A94F6
:2007C000892809F00CCFCC0CDD1CEE1CFF1C6894C0F80BC0AA94AB2809F001CF892809F09B
:2007E000FECECC0CDD1CEE1CFF1C0F5F1F4FD4CE1093480100934701C0924301D0924401B5
:20080000E0924501F092460182E090E0BBC112960D911C911397015111090D30110518F5A0
:2008200001E090D821601496AE15BF0509F0F3CE20934301309344014093450150934601C1
:2008400000E29BD8209341013093420185E090E09093400180933F0180E390E0909348017D
:200860008093470193C112960D911C911397045011090530110508F0D7CE01E063D8D3CF18
:2008800084819581CA97899708F000CF9F012A5F3F4FC12CD12C760143E050E0EFCE9F012D
:2008A0002A583F4FD9012D913C912A5031092930310508F0EBCE2CE130E0309348012093F3
:2008C0004701C0924301D0924401E0924501F09246018AE090E056C1D90112966D917C9194
:2008E0001397665071096730710508F0CFCECC0CDD1CEE1CFF1CBACE20916400CF01820F88
:20090000911D820F911DDC0112978D919C910A97099708F0C5CE10924801109247018FEFFA
:200920009FEFDC018093430190934401A0934501B093460147C0D90112966D917C9113974C
:20094000665171096131710568F5D701C601880F991FAA1FBB1F6C017D016894C0F84E5F24
:200960005F4F2C5F3F4F4332510509F0B1CE9F012A5B3F4FD9012D913C912A503109293048
:20098000310508F0AECE20E130E03093480120934701C0924301D0924401E0924501F0921E
:2009A000460110C0D90112966D917C911397665071096730710508F094CECC0CDD1CEE1C77
:2009C000FF1CCDCF86E090E0DDC08481958189549109C39708F09ACE9F012A5F3F4FBF012A
:2009E0006A577F4FC12CD12C7601D9014D915C914950510949305105B8F088CE8681978183
:200A00000997099708F07DCE10924801109247018FEF9FEFDC018093430190934401A093A3
:200A20004501B0934601C6C1D90112964D915C9113974651510941315105F0F4D701C6012C
:200A4000880F991FAA1FBB1F6C017D016894C0F82C5F3F4F2617370741F620E230E0309365
:200A6000480120934701C0924301D0924401E0924501F09246019EC1D90112964D915C91C8
:200A80001397465051094730510508F03FCECC0CDD1CEE1CFF1CDCCF8481958109970997EE
:200AA00008F064CE868197818C974F9708F05ECE8085918589974D9708F058CE9F01265F5E
:200AC0003F4FC12CD12C760145E050E047CE9F0126573F4FD9012D913C912C5031092B309C
:200AE000310508F043CE20E230E03093480120934701C0924301D0924401E0924501F09227
:200B0000460188E090E03EC0D90112966D917C911397695071096930710508F027CECC0C7A
:200B2000DD1CEE1CFF1C12CE84819581825491098E9708F058C08F01045C1F4F8DE190E0BB
:200B400040E050E02091640030E02450310982179307FCF0019795958795909348018093F6
:200B600047018A970CF43FC0052E000C660B770B4093430150934401609345017093460119
:200B800089E090E09093400180933F0181E090E014C1980122503109D9012D913C912950FC
:200BA000310928303105F8F4BC016F5F7F4FD8012D913C91275031092730310538F4440F07
:200BC000551F416002960C5F1F4FBCCFD8012D913C91285131092231310510F0CB01BACF0F
:200BE000440F551FEFCF809164008032E1F48281938106970697B8F484819581099709971C
:200C000090F49F012A5F3F4FBF01625C7F4FC12CD12C7601D9014D915C91465051094630E1
:200C2000510508F479C080914B0190914C019E838D8306970CF4ABC08F010E5F1F4F65EC69
:200C4000C62E6DE9D62E6CE1E62E61E8F62E73E0272E312CD80114966D917C911597AD90FC
:200C6000BC9080E090E038D52B013C01B50180E090E032D54B015C012DEC3CEC4CE45FE3F9
:200C8000DDD59B01AC01C301B20189D487FD17C02DEC3CEC4CE45FE3C301B201CFD59B01C0
:200CA000AC01C501B4017BD4A82E880FBB08AA24BB0CAA1CBB24BFEFAB1ABB0A02C0A12C8C
:200CC000B12C23E931E040E051E0C701B60121D66501BB0CEE08FF08C626D726E826F92613
:200CE000EFEF2E1A3E0A0E5F1F4F8D819E818215930509F0AFCFC0924301D0924401E09229
:200D00004501F092460180E290E090934801809347018FEF9FEF36CFD90112964D915C91CD
:200D20001397495151094331510508F5D701C601880F991FAA1FBB1F6C017D016894C0F81E
:200D40002C5F3F4F2617370709F064CF2EE030E03093480120934701C0924301D092440171
:200D6000E0924501F09246018FE090E00BCFD90112964D915C911397495051094930510580
:200D800008F051CFCC0CDD1CEE1CFF1CD9CF82E0809360001092640080E090E00EC0809311
:200DA000430190934401A0934501B093460183E090E0E8CE87E090E0E5CE26960FB6F89464
:200DC000DEBF0FBECDBFDF91CF911F910F91FF90EF90DF90CF90BF90AF909F908F907F9036
:200DE0006F905F904F903F902F900895813019F48AB58F7704C0823021F48AB58F7D8ABDDB
:200E00000895833021F480B78F7D80BF0895843019F48CB58F7D8CBD0895CF93DF9387FF00
:200E200011C08F7741F0813041F0823041F0833041F08FEF07C085E005C082E003C084E009
:200E400001C083E0282F30E0F901E45CFF4F8491F901EA5CFF4FD491F901E05DFF4FC4919D
:200E6000CC2389F08111C2DFEC2FF0E0EE0FFF1FE65DFF4FA591B491EC91ED2381E090E067
:200E800021F480E002C080E090E0DF91CF9108951F93CF93DF93162F87FF11C08F7741F085
:200EA000813041F0823041F0833041F08FEF07C085E005C082E003C084E001C083E0282F16
:200EC00030E0F901E45CFF4F8491F901EA5CFF4FD491F901E05DFF4FC491CC23D1F0811156
:200EE00085DFEC2FF0E0EE0FFF1FEC5DFF4FA591B491111108C09FB7F8948C91D095D8232D
:200F0000DC939FBF06C08FB7F894EC91DE2BDC938FBFDF91CF911F910895CF93DF9387FFB2
:200F200011C08F7741F0813041F0823041F0833041F08FEF07C085E005C082E003C084E008
:200F400001C083E090E0FC01EA5CFF4F2491FC01E05DFF4F8491882361F190E0880F991F5E
:200F6000FC01E25EFF4FC591D491FC01EC5DFF4FA591B491611109C09FB7F8948881209541
:200F800082238883EC912E230BC0623061F49FB7F8948881322F309583238883EC912E2B89
:200FA0002C939FBF06C08FB7F894E8812E2B28838FBFDF91CF9108951F920F920FB60F929C
:200FC00011242F933F938F939F93AF93BF938091370190913801A0913901B0913A01309115
:200FE000360126E0230F2D3730F029E8230F0396A11DB11D03C00296A11DB11D20933601C5
:201000008093370190933801A0933901B0933A018091320190913301A0913401B0913501C8
:201020000196A11DB11D8093320190933301A0933401B0933501BF91AF919F918F913F915F
:201040002F910F900FBE0F901F9018951F920F920FB60F9211242F933F934F935F936F9312
:201060007F938F939F93AF93BF93EF93FF9380916100D3DE20916500309166002F5F3F4FE6
:20108000309366002093650090916400953618F096E090936000909160009430C9F128F4A3
:2010A000923069F09330D1F05EC0953009F451C0963009F058C091E09093310151C0811160
:2010C00052C020916500309166002436310508F442C010923101109264001CC0813009F0D3
:2010E00042C0E091640091E09E0F90936400F0E02091650030916600EE0FFF1FE05AFF4FC4
:2011000030872783109266001092650094E029C0811117C0E091640091E09E0F909364001F
:20112000F0E02091650030916600EE0FFF1FE05AFF4F30872783109266001092650093E01C
:2011400010C020916500309166002536310558F007C0811108C0109266001092650003C0B6
:2011600095E090936000909163009923B1F081110AC080916200882321F08091620061E057
:2011800009C0C59A0AC080916200882329F08091620060E07DDE01C0C598FF91EF91BF919A
:2011A000AF919F918F917F916F915F914F913F912F910F900FBE0F901F901895CF92DF92F6
:2011C000EF92FF92CF93DF93EC01072E000C880B990B84D26B017C0120E030E040E45FE30F
:2011E0002DD320E030E048E452E4DDD144D2C617D707B4F020E030E040EA5FE3C701B6015F
:201200001DD320E030E048E452E4CDD120E030E040E85FE360D12FD221E06C177D070CF41A
:2012200020E0822F90E0DF91CF91FF90EF90DF90CF9008950F931F93CF93DF9300E511E046
:20124000C0E0D0E0CE0130D1F80181938F012196C430D105B9F780E591E0DF91CF911F914A
:201260000F9108958F929F92AF92BF92CF92DF92EF92FF920F931F93CF93DF93FC012081A3
:201280003181E0914B01F0914C012E173F070CF04CC0F901EE0FFF1FA0914901B0914A0162
:2012A000EA0FFB1FA080B180217033276901F1E0CF26232B19F42CE93FEF02C024E630E035
:2012C0007A018B01EC014901840E951EB401C50175DF892B89F48E0C9F1CB401C5016EDF6E
:2012E000892B69F4B701680D791DC50167DF892BF9F023E030E005C021E030E002C022E0C4
:2013000030E0F801808191810196821793071CF49183808308C0F8011182108288819981B7
:20132000019699838883C60105C081E090E002C08FEF9FEFDF91CF911F910F91FF90EF9096
:20134000DF90CF90BF90AF909F908F90089581B781BF8AB582608ABD8AB581608ABD83B7C5
:20136000887F836083BF789489B7826089BF80B7807F80BF80B7806880BF80B7806480BF9E
:201380008CB580648CBD8FEF8DBD80B7876080BF86B18877866886B9379A61E082E0BDDD49
:2013A00061E080E0BADD62E081E0B7DD62E083E0B4DDF89482E08ABD83BF92E399BD12BE76
:2013C00099B7906199BF789480936000109264008091610060E0A1DD2DDF12E04ED6892BE9
:2013E000A9F1409143015091440160914501709146018091500190915101A0915201B091FF
:201400005301481759076A077B0731F461E082E03FDD61E080E03CDD10936000109264001F
:2014200080E593ECA0E0B0E00197A109B109E0F780933B0190933C01A0933D01B0933E0143
:2014400060E082E025DD60E080E022DD81E0E5DC892B09F0C3CF61E080E01ADD0ED6892BB8
:20146000E9F383E4E82E81E0F82EC0E0D0E0F70101917F01CE0118D0081719F0602FCE01F5
:201480001BD02196C430D10591F71093600010926400D0DE60E080E0FBDCA0CFE0E6F0E025
:2014A00083E0818313820895E199FECF9FBB8EBBE09A99278DB30895262FE199FECF1CBA20
:2014C0009FBB8EBB2DBB0FB6F894E29AE19A0FBE019608955058BB27AA270ED075C166D192
:2014E00030F06BD120F031F49F3F11F41EF45BC10EF4E095E7FB51C1E92F77D180F3BA173B
:20150000620773078407950718F071F49EF58FC10EF4E0950B2EBA2FA02D0B01B9019001B4
:201520000C01CA01A0011124FF27591B99F0593F50F4503E68F11A16F040A22F232F342F31
:201540004427585FF3CF469537952795A795F0405395C9F77EF41F16BA0B620B730B840B4A
:20156000BAF09150A1F0FF0FBB1F661F771F881FC2F70EC0BA0F621F731F841F48F4879547
:2015800077956795B795F7959E3F08F0B3CF9395880F08F09927EE0F979587950895D9D012
:2015A00008F481E008950CD00FC107D140F0FED030F021F45F3F19F0F0C0511139C1F3C014
:2015C00014D198F39923C9F35523B1F3951B550BBB27AA2762177307840738F09F5F5F4FF2
:2015E000220F331F441FAA1FA9F333D00E2E3AF0E0E830D091505040E695001CCAF729D0AD
:20160000FE2F27D0660F771F881FBB1F261737074807AB07B0E809F0BB0B802DBF01FF27B4
:2016200093585F4F2AF09E3F510568F0B6C000C15F3FECF3983EDCF3869577956795B795A4
:20164000F7959F5FC9F7880F911D9695879597F90895E1E0660F771F881FBB1F6217730747
:201660008407BA0720F0621B730B840BBA0BEE1F88F7E095089504D06894B111D9C0089559
:20168000BCD088F09F5790F0B92F9927B751A0F0D1F0660F771F881F991F1AF0BA95C9F74C
:2016A00012C0B13081F0C3D0B1E00895C0C0672F782F8827B85F39F0B93FCCF386957795BB
:2016C0006795B395D9F73EF490958095709561957F4F8F4F9F4F0895E89409C097FB3EF44F
:2016E00090958095709561957F4F8F4F9F4F9923A9F0F92F96E9BB279395F6958795779562
:201700006795B795F111F8CFFAF4BB0F11F460FF1BC06F5F7F4F8F4F9F4F16C0882311F0D7
:2017200096E911C0772321F09EE8872F762F05C0662371F096E8862F70E060E02AF09A9512
:20174000660F771F881FDAF7880F9695879597F90895990F0008550FAA0BE0E8FEEF161651
:201760001706E807F907C0F012161306E407F50798F0621B730B840B950B39F40A2661F025
:20178000232B242B252B21F408950A2609F4A140A6958FEF811D811D089597F99F6780E80C
:2017A00070E060E008959FEF80EC089500240A941616170618060906089500240A941216A6
:2017C0001306140605060895092E0394000C11F4882352F0BB0F40F4BF2B11F460FF04C052
:2017E0006F5F7F4F8F4F9F4F089557FD9058440F551F59F05F3F71F04795880F97FB991FDC
:2018000061F09F3F79F087950895121613061406551FF2CF4695F1DF08C01616170618060D
:20182000991FF1CF86957105610508940895E894BB2766277727CB0197F908950AD0C4CF11
:20184000B5DF28F0BADF18F0952309F0A6CFABCFEFCFCBDFA8F39923D9F35523C9F3950F38
:2018600050E0551FAA27EE27FF27BB2700240894679520F4E20FF31FB41F0A1E220F331F85
:20188000441FAA1F6695A9F7779530F4F30FB41F0A1E121E08F46395330F441FAA1F221F81
:2018A000769599F7879520F4B40F0A1E121E631F440FAA1F221F331F8695A9F7862F712D03
:2018C000602D11249F5750408AF0E1F088234AF0EE0FFF1FBB1F661F771F881F9150504068
:2018E000A9F79E3F510570F058CFA2CF5F3FECF3983EDCF3869577956795B795F795E79584
:201900009F5FC1F7FE2B880F911D9695879597F90895EE27FF27AA27BB2708C0A20FB31FF6
:20192000E41FF51F220F331F441F551F969587957795679598F37040A9F7009799F7BD0127
:20194000CF0108950F93083090F0982F872F762F652F542F432F322F22270850F4CF220F1F
:20196000331F441F551F661F771F881F991F0A95B2F70F91089597FB10F8169400080F9351
:20198000083098F00850232F342F452F562F672F782F892F902DF4CF05949795879577951F
:2019A000679557954795379527950A95AAF70F910895EE0FFF1F0590F491E02D0994F894F3
:0219C000FFCF57
:00000001FF
